{
  "address": "0x9fE46736679d2D9a65F0992F2272dE9f3c7fa6e0",
  "abi": [
    {
      "inputs": [
        {
          "internalType": "address",
          "name": "_rewardAddress",
          "type": "address"
        },
        {
          "internalType": "address",
          "name": "_sourceAddress",
          "type": "address"
        }
      ],
      "stateMutability": "nonpayable",
      "type": "constructor"
    },
    {
      "anonymous": false,
      "inputs": [
        {
          "indexed": false,
          "internalType": "address",
          "name": "toAddress",
          "type": "address"
        },
        {
          "indexed": false,
          "internalType": "uint256",
          "name": "amount",
          "type": "uint256"
        }
      ],
      "name": "ClaimReward",
      "type": "event"
    },
    {
      "anonymous": false,
      "inputs": [
        {
          "indexed": true,
          "internalType": "address",
          "name": "previousOwner",
          "type": "address"
        },
        {
          "indexed": true,
          "internalType": "address",
          "name": "newOwner",
          "type": "address"
        }
      ],
      "name": "OwnershipTransferred",
      "type": "event"
    },
    {
      "inputs": [
        {
          "internalType": "uint256",
          "name": "amount",
          "type": "uint256"
        },
        {
          "internalType": "uint256",
          "name": "nonce",
          "type": "uint256"
        },
        {
          "internalType": "bytes",
          "name": "signature",
          "type": "bytes"
        }
      ],
      "name": "claimReward",
      "outputs": [],
      "stateMutability": "nonpayable",
      "type": "function"
    },
    {
      "inputs": [],
      "name": "owner",
      "outputs": [
        {
          "internalType": "address",
          "name": "",
          "type": "address"
        }
      ],
      "stateMutability": "view",
      "type": "function"
    },
    {
      "inputs": [],
      "name": "renounceOwnership",
      "outputs": [],
      "stateMutability": "nonpayable",
      "type": "function"
    },
    {
      "inputs": [],
      "name": "rewardAddress",
      "outputs": [
        {
          "internalType": "address",
          "name": "",
          "type": "address"
        }
      ],
      "stateMutability": "view",
      "type": "function"
    },
    {
      "inputs": [],
      "name": "sourceAddress",
      "outputs": [
        {
          "internalType": "address",
          "name": "",
          "type": "address"
        }
      ],
      "stateMutability": "view",
      "type": "function"
    },
    {
      "inputs": [
        {
          "internalType": "address",
          "name": "newOwner",
          "type": "address"
        }
      ],
      "name": "transferOwnership",
      "outputs": [],
      "stateMutability": "nonpayable",
      "type": "function"
    }
  ],
  "transactionHash": "0x59ebd366c0fd5a474dae971426c43039112e16005aef14386a836be9c5466c78",
  "args": [
    "0x5FbDB2315678afecb367f032d93F642f64180aa3",
    "0xf39Fd6e51aad88F6F4ce6aB8827279cffFb92266"
  ],
  "numDeployments": 1,
  "solcInputHash": "2450f2742c3aae7e7dabdd119d5cce8f",
  "bytecode": "0x608060405234801561001057600080fd5b50604051610e8a380380610e8a83398101604081905261002f916100d5565b61003833610069565b600180546001600160a01b039384166001600160a01b03199182161790915560028054929093169116179055610108565b600080546001600160a01b038381166001600160a01b0319831681178455604051919092169283917f8be0079c531659141344cd1fd0a4f28419497f9722a3daafe3b4186f6b6457e09190a35050565b80516001600160a01b03811681146100d057600080fd5b919050565b600080604083850312156100e857600080fd5b6100f1836100b9565b91506100ff602084016100b9565b90509250929050565b610d73806101176000396000f3fe608060405234801561001057600080fd5b50600436106100625760003560e01c8063715018a61461006757806376618f27146100715780638cf57cb9146100845780638da5cb5b146100b3578063b0fa8444146100c4578063f2fde38b146100d7575b600080fd5b61006f6100ea565b005b61006f61007f366004610b5e565b610155565b600154610097906001600160a01b031681565b6040516001600160a01b03909116815260200160405180910390f35b6000546001600160a01b0316610097565b600254610097906001600160a01b031681565b61006f6100e5366004610c22565b6103fe565b6000546001600160a01b031633146101495760405162461bcd60e51b815260206004820181905260248201527f4f776e61626c653a2063616c6c6572206973206e6f7420746865206f776e657260448201526064015b60405180910390fd5b61015360006104c9565b565b604080513360601b6bffffffffffffffffffffffff1916602080830191909152603482018690526054808301869052835180840390910181526074830184528051908201207f19457468657265756d205369676e6564204d6573736167653a0a333200000000609484015260b08084018290528451808503909101815260d090930190935281519101206000548492869285926001600160a01b03166101fb8285610519565b6001600160a01b0316146102455760405162461bcd60e51b8152602060048201526011602482015270496e76616c6964207369676e617475726560781b6044820152606401610140565b33600090815260036020908152604080832088845290915290205460ff161561029d5760405162461bcd60e51b815260206004820152600a60248201526955736564206e6f6e636560b01b6044820152606401610140565b33600090815260036020908152604080832088845290915290819020805460ff19166001908117909155546002549151636eb1769f60e11b81526001600160a01b0392831660048201523060248201528a929091169063dd62ed3e90604401602060405180830381865afa158015610319573d6000803e3d6000fd5b505050506040513d601f19601f8201168201806040525081019061033d9190610c4b565b101561039d5760405162461bcd60e51b815260206004820152602960248201527f746f6b656e20616c6c6f77616e6365206f6620736f75726365206164647265736044820152687320746f6f206c6f7760b81b6064820152608401610140565b6002546001546103bb916001600160a01b039182169116338b61053d565b60408051338152602081018a90527fba8de60c3403ec381d1d484652ea1980e3c3e56359195c92525bff4ce47ad98e910160405180910390a15050505050505050565b6000546001600160a01b031633146104585760405162461bcd60e51b815260206004820181905260248201527f4f776e61626c653a2063616c6c6572206973206e6f7420746865206f776e65726044820152606401610140565b6001600160a01b0381166104bd5760405162461bcd60e51b815260206004820152602660248201527f4f776e61626c653a206e6577206f776e657220697320746865207a65726f206160448201526564647265737360d01b6064820152608401610140565b6104c6816104c9565b50565b600080546001600160a01b038381166001600160a01b0319831681178455604051919092169283917f8be0079c531659141344cd1fd0a4f28419497f9722a3daafe3b4186f6b6457e09190a35050565b6000806000610528858561059d565b915091506105358161060d565b509392505050565b604080516001600160a01b0385811660248301528416604482015260648082018490528251808303909101815260849091019091526020810180516001600160e01b03166323b872dd60e01b1790526105979085906107c8565b50505050565b6000808251604114156105d45760208301516040840151606085015160001a6105c88782858561089f565b94509450505050610606565b8251604014156105fe57602083015160408401516105f386838361098c565b935093505050610606565b506000905060025b9250929050565b600081600481111561062157610621610c64565b141561062a5750565b600181600481111561063e5761063e610c64565b141561068c5760405162461bcd60e51b815260206004820152601860248201527f45434453413a20696e76616c6964207369676e617475726500000000000000006044820152606401610140565b60028160048111156106a0576106a0610c64565b14156106ee5760405162461bcd60e51b815260206004820152601f60248201527f45434453413a20696e76616c6964207369676e6174757265206c656e677468006044820152606401610140565b600381600481111561070257610702610c64565b141561075b5760405162461bcd60e51b815260206004820152602260248201527f45434453413a20696e76616c6964207369676e6174757265202773272076616c604482015261756560f01b6064820152608401610140565b600481600481111561076f5761076f610c64565b14156104c65760405162461bcd60e51b815260206004820152602260248201527f45434453413a20696e76616c6964207369676e6174757265202776272076616c604482015261756560f01b6064820152608401610140565b600061081d826040518060400160405280602081526020017f5361666545524332303a206c6f772d6c6576656c2063616c6c206661696c6564815250856001600160a01b03166109c59092919063ffffffff16565b80519091501561089a578080602001905181019061083b9190610c7a565b61089a5760405162461bcd60e51b815260206004820152602a60248201527f5361666545524332303a204552433230206f7065726174696f6e20646964206e6044820152691bdd081cdd58d8d9595960b21b6064820152608401610140565b505050565b6000807f7fffffffffffffffffffffffffffffff5d576e7357a4501ddfe92f46681b20a08311156108d65750600090506003610983565b8460ff16601b141580156108ee57508460ff16601c14155b156108ff5750600090506004610983565b6040805160008082526020820180845289905260ff881692820192909252606081018690526080810185905260019060a0016020604051602081039080840390855afa158015610953573d6000803e3d6000fd5b5050604051601f1901519150506001600160a01b03811661097c57600060019250925050610983565b9150600090505b94509492505050565b6000806001600160ff1b038316816109a960ff86901c601b610c9c565b90506109b78782888561089f565b935093505050935093915050565b60606109d484846000856109de565b90505b9392505050565b606082471015610a3f5760405162461bcd60e51b815260206004820152602660248201527f416464726573733a20696e73756666696369656e742062616c616e636520666f6044820152651c8818d85b1b60d21b6064820152608401610140565b6001600160a01b0385163b610a965760405162461bcd60e51b815260206004820152601d60248201527f416464726573733a2063616c6c20746f206e6f6e2d636f6e74726163740000006044820152606401610140565b600080866001600160a01b03168587604051610ab29190610cee565b60006040518083038185875af1925050503d8060008114610aef576040519150601f19603f3d011682016040523d82523d6000602084013e610af4565b606091505b5091509150610b04828286610b0f565b979650505050505050565b60608315610b1e5750816109d7565b825115610b2e5782518084602001fd5b8160405162461bcd60e51b81526004016101409190610d0a565b634e487b7160e01b600052604160045260246000fd5b600080600060608486031215610b7357600080fd5b8335925060208401359150604084013567ffffffffffffffff80821115610b9957600080fd5b818601915086601f830112610bad57600080fd5b813581811115610bbf57610bbf610b48565b604051601f8201601f19908116603f01168101908382118183101715610be757610be7610b48565b81604052828152896020848701011115610c0057600080fd5b8260208601602083013760006020848301015280955050505050509250925092565b600060208284031215610c3457600080fd5b81356001600160a01b03811681146109d757600080fd5b600060208284031215610c5d57600080fd5b5051919050565b634e487b7160e01b600052602160045260246000fd5b600060208284031215610c8c57600080fd5b815180151581146109d757600080fd5b60008219821115610cbd57634e487b7160e01b600052601160045260246000fd5b500190565b60005b83811015610cdd578181015183820152602001610cc5565b838111156105975750506000910152565b60008251610d00818460208701610cc2565b9190910192915050565b6020815260008251806020840152610d29816040850160208701610cc2565b601f01601f1916919091016040019291505056fea2646970667358221220b0c51990d987e312e289c4cef3579f46deabaa867dbcb7b5225148b2e66edf3564736f6c634300080c0033",
  "devdoc": {
    "kind": "dev",
    "methods": {
      "owner()": {
        "details": "Returns the address of the current owner."
      },
      "renounceOwnership()": {
        "details": "Leaves the contract without owner. It will not be possible to call `onlyOwner` functions anymore. Can only be called by the current owner. NOTE: Renouncing ownership will leave the contract without an owner, thereby removing any functionality that is only available to the owner."
      },
      "transferOwnership(address)": {
        "details": "Transfers ownership of the contract to a new account (`newOwner`). Can only be called by the current owner."
      }
    },
    "version": 1
  },
  "userdoc": {
    "kind": "user",
    "methods": {},
    "version": 1
  },
  "storageLayout": {
    "storage": [
      {
        "astId": 539,
        "contract": "contracts/RewardPool.sol:RewardPool",
        "label": "_owner",
        "offset": 0,
        "slot": "0",
        "type": "t_address"
      },
      {
        "astId": 3843,
        "contract": "contracts/RewardPool.sol:RewardPool",
        "label": "rewardAddress",
        "offset": 0,
        "slot": "1",
        "type": "t_address"
      },
      {
        "astId": 3845,
        "contract": "contracts/RewardPool.sol:RewardPool",
        "label": "sourceAddress",
        "offset": 0,
        "slot": "2",
        "type": "t_address"
      },
      {
        "astId": 3851,
        "contract": "contracts/RewardPool.sol:RewardPool",
        "label": "seenNonces",
        "offset": 0,
        "slot": "3",
        "type": "t_mapping(t_address,t_mapping(t_uint256,t_bool))"
      }
    ],
    "types": {
      "t_address": {
        "encoding": "inplace",
        "label": "address",
        "numberOfBytes": "20"
      },
      "t_bool": {
        "encoding": "inplace",
        "label": "bool",
        "numberOfBytes": "1"
      },
      "t_mapping(t_address,t_mapping(t_uint256,t_bool))": {
        "encoding": "mapping",
        "key": "t_address",
        "label": "mapping(address => mapping(uint256 => bool))",
        "numberOfBytes": "32",
        "value": "t_mapping(t_uint256,t_bool)"
      },
      "t_mapping(t_uint256,t_bool)": {
        "encoding": "mapping",
        "key": "t_uint256",
        "label": "mapping(uint256 => bool)",
        "numberOfBytes": "32",
        "value": "t_bool"
      },
      "t_uint256": {
        "encoding": "inplace",
        "label": "uint256",
        "numberOfBytes": "32"
      }
    }
  }
}